:020000040800F2
:10000000D00F002079020008A93E0008A53800089A
:10001000A53E0008F5040008C545000800000000E2
:10002000000000000000000000000000B13E0008D9
:100030000505000800000000AD3E0008B53E0008C0
:10004000930200089302000893020008930200083C
:10005000930200089302000893020008930200082C
:10006000930200089302000893020008F9040008B4
:10007000930200089302000893020008930200080C
:1000800093020008930200089302000893020008FC
:1000900093020008930200089302000893020008EC
:1000A00093020008930200089302000893020008DC
:1000B00093020008930200089302000893020008CC
:1000C00093020008930200089302000893020008BC
:1000D00093020008930200089302000893020008AC
:1000E000930200089302000893020008930200089C
:1000F000930200089302000893020008930200088C
:10010000930200089302000893020008930200087B
:10011000930200089302000893020008930200086B
:10012000930200089302000893020008930200085B
:10013000930200089302000893020008930200084B
:10014000930200089302000893020008930200083B
:10015000930200089302000893020008930200082B
:10016000930200089302000893020008930200081B
:10017000930200089302000893020008930200080B
:1001800093020008930200089302000893020008FB
:100190009302000800000000930200089302000888
:1001A00093020008930200089302000893020008DB
:1001B00093020008930200089302000893020008CB
:1001C00093020008930200089302000893020008BB
:1001D000930200089302000800F002F800F03CF8D7
:1001E0000AA090E8000C82448344AAF10107DA4592
:1001F00001D100F031F8AFF2090EBAE80F0013F0A8
:10020000010F18BFFB1A43F001031847084900000B
:1002100028490000103A24BF78C878C1FAD852079C
:1002200024BF30C830C144BF04680C607047000070
:100230000023002400250026103A28BF78C1FBD8EF
:10024000520728BF30C148BF0B6070471FB504F08C
:1002500018FC1FBD10B510BD00F0D4F81146FFF713
:10026000F5FF04F0CFF900F0F2F803B4FFF7F2FF66
:1002700003BC00F0F5F80000094880470948004732
:10028000FEE7FEE7FEE7FEE7FEE7FEE7FEE7FEE746
:10029000FEE7FEE704480549054A064B70470000A3
:1002A000B93E0008D9010008D0030020D00F00207B
:1002B000D0070020D007002053EA020C00F069802C
:1002C0002DE9F04B4FF00006002B1FBFB3FA83F56A
:1002D00003FA05F424FA05F65E4012BF1643B2FA9B
:1002E00082F502FA05F4C5F120051EBF22FA05FCCD
:1002F00044EA0C04203556EA044C4FEA144418BF73
:10030000641C4FF000084FF00009904271EB030CA1
:1003100039D3002919BFB1FA81F701FA07F6B0FA0B
:1003200080F700FA07F6C7F120071EBF20FA07FC86
:1003300046EA0C062037B6FBF4FCA7EB0507103F96
:1003400007F01F0BCBF120062CFA06F60CFA0BFB7C
:1003500044BFB3460026202FA4BF5E464FF0000BDB
:100360005BEA060C08BF4FF0010B19EB0B0948EBD9
:100370000608ABFB027C06FB02CC0BFB03CCC01BCC
:1003800071EB0C01C1E70B46024641464846BDE809
:10039000F08B13B5084318BF4FF0FF300146AFF3A1
:1003A0000080BDE81C4070474FF0000200B51346C6
:1003B00094469646203922BFA0E80C50A0E80C5085
:1003C000B1F12001BFF4F7AF090728BFA0E80C5036
:1003D00048BF0CC05DF804EB890028BF40F8042B2F
:1003E00008BF704748BF20F8022B11F0804F18BF9C
:1003F00000F8012B704770477047704700487047FE
:10040000700000207546FFF7F9FFAE46050069460B
:10041000534620F00700854618B020B5FFF73AFF95
:10042000BDE820404FF000064FF000074FF00008F5
:100430004FF0000BAC46ACE8C009ACE8C009ACE832
:10044000C009ACE8C00921F007018D46704710B51E
:100450000446AFF300802046BDE81040FFF705BF1B
:1004600001491820ABBEFEE72600020070470000DD
:100470000146806AC36DC26D13F0500F08D0D206DA
:1004800048BF00F07FBB406D426B0846104700BF7D
:1004900042F40071C16501680B68CA681B0703D488
:1004A000910707D500F028BA12F4406FFAD1C96855
:1004B0008904F7D4C16D21F48071C165C16DC9048F
:1004C00048BF00F019BAC16D41F00101C16500F0EB
:1004D00013BA0000806AC16D41F04001C165016E30
:1004E00041F00401016600F04DBB0000806A00F09D
:1004F00047BB0000FEE7000040F29010C2F200008F
:1005000000F0AEBD70470000EFF3108072B600BF80
:10051000FEE70000F0B581B00022009290F858206C
:10052000012A03D10221084601B0F0BD012307686A
:1005300080F85830BB685B0736D4D1E900531F26DA
:10054000C3F3012407EB8404226B03F01F039E40D6
:10055000B243C5F3846606FA03F31A432263BA680A
:10056000BB6802F0040203F00803D21840F0BD801B
:100570000A6807F114030426C2F34064D1F808E0C6
:1005800006EAD25C53F82440C2F304550722AA407D
:10059000BEF1004F24EA02040CD143F80C401A6863
:1005A00042F000430EE000BFC16D41F02001C16583
:1005B000012199E10EFA05F2224343F80C201A6852
:1005C00022F000437B61D1E90435FC68042B5FD144
:1005D0003A6E3A6E0B68C2F3846293FAA3F6C3F3E1
:1005E000846C6FF3DF43B6FA86F5002B2C464FF68A
:1005F000FF7E08BF6446A242C0F2070E0CD13A6EDD
:1006000022F000423A660A6802EA0E03C2F3846CE2
:1006100092FAA2F2B2FA82F57A6E7A6E002BC2F3E7
:1006200084622C4608BF6446A2420CD17A6E22F046
:1006300000427A660A6802EA0E03C2F3846C92FAF8
:10064000A2F2B2FA82F5BA6EBA6E002BC2F38462DD
:100650002C4608BF6446A2420CD1BA6E22F000427A
:10066000BA660A6802EA0E03C2F3846C92FAA2F236
:10067000B2FA82F5FA6EFA6E002BC2F3846208BFFA
:100680006546AA4231D1FA6E22F00042FA662CE0A9
:10069000062202EA940205FA02FC0E6807F16005E0
:1006A00055F823404FF20002C0F2FF3206F0F84640
:1006B000224046EA0C06324342F0004245F823202D
:1006C0000A698B6955F8226026F08076334345F835
:1006D00022300A690B7F55F82260012B26F0007644
:1006E00008BF06F1007645F82260BA68D2074CD1FF
:1006F0000D68CA6800262B46C4F27F06B2426FF32B
:10070000DF4319D1D7F8B02042EA0302C7F8B0207E
:10071000C3B195FAA5F2B2FA82F2013202F01E03D9
:10072000092B02F01F0316D801229A4003EB430362
:1007300042EA03531BE000BFD7F8B0209A43C7F842
:10074000B02022E0012202EB956202F01E030A2B88
:1007500002F01F03E8D3012200269A4003EB430373
:10076000CFF6206606EB03531A4342F00073C3F33F
:10077000406607EB86068A687569C3F3045307244D
:100780009C40A5439A402A4372610B680021C8F23D
:1007900008010B4266D040F2003EC5F2000EAEF5F5
:1007A00000710EF580648F4204BF40F20034C5F240
:1007B00000042146B7F1A04F04BF40F20031C5F25A
:1007C00000018D680022CCF22132934205F0E07CDA
:1007D00004D01022C9F2C002934245D12A0261D44A
:1007E00040F20062C5F20002974202D0B7F1A04F7A
:1007F0005AD18A6822F0E07242EA0C0242F4000206
:100800008A6040F26801C2F20001096842F6635250
:100810008909C0F23E52A1FB0212910901EB41018C
:100820000C2202EB810100910099002948D0009927
:10083000013900910099002944D0009901390091B3
:100840000099002940D000990139009100990029B0
:100850003CD0009901390091009900294FF0000126
:10086000E5D141E000213FE00022CCF252729342F8
:1008700008BF15F0807219D00021CCF684318B426C
:100880004FF0000108BF15F480022DD1B7F1A04F41
:100890001FD040F20011C5F200018F4218D1002193
:1008A00022E000BF00211FE000211DE08A6822F045
:1008B000E07242EA0C0242F080728A60002113E08A
:1008C000002111E000210FE000210DE000210BE0EC
:1008D000A646DEF8081021F0E07141EA0C0141F46F
:1008E0008001CEF808100021002280F85820084628
:1008F00001B0F0BD0000000070B52DED088B40F296
:10090000D004C2F20004208BE18BA28C0844618DDC
:100910001044228E08441044618B228C00EE100A91
:100920005018E18CA28D0844618E1044084401EEF9
:10093000100AA08B618CB8EEC00A0844218DB1EE7C
:10094000042A0844E18D80EE020A0844A18EB8EE24
:10095000C11A81EE021A084403EE100AB8EEC33A37
:1009600083EE022A9FED7E3A9FED7E4A9FED7E5AEE
:1009700020EE030A20EE040A20EE05BA84ED00BA48
:1009800021EE030A20EE040A20EE050A84ED010A96
:1009900022EE030A9FED751A20EE040A30EE010ADA
:1009A00010EE100A03F0FCFF9FED6B0B53EC102BC5
:1009B00003F0F8FE03F0C4FE40F2F016C2F20006A7
:1009C0003168A06091ED250A40F200059FED688A2C
:1009D000C2F20005B8EE400A91ED25AA05F1080023
:1009E000002120EE089A03F0EFFDBBEE0E0A3BEE6D
:1009F000001A95ED020A95ED032A95ED054A95ED4D
:100A0000043A95ED065A22EE042A20EE010A95EDED
:100A1000076A30EE020A23EE052A32EE000A30EEB3
:100A2000060AB4EE490AF1EE10FA84ED051A85EDD6
:100A3000051A85ED064A85ED070A0EDC9FED4D1A75
:100A4000B8EE4A2A22EE011AB4EE410AB0EE409AFC
:100A5000F1EE10FAB8BFB0EE419ABDEEC90A3068A7
:100A600010EE101AC0F89C1094ED010A94ED021AD1
:100A700090ED252A90ED253A95ED0C5A20EE014A8D
:100A800095ED176A34EE455AB0EEC57AB4EE467A63
:100A900095ED106AB8EE422A22EE082A30EE466A38
:100AA000F1EE10FA85ED0D4A85ED0E5A85ED110A2D
:100AB00085ED126A25DD95ED0F6AB4EE465AF1EE2A
:100AC00010FA07DD95ED145A95ED166A35EE065AC3
:100AD00011E000BFB1EE466AB4EE465AF1EE10FAEC
:100AE0000BDA95ED165A95ED146AB1EE457A36EEAD
:100AF000455A85ED167A85ED145A85ED0C4A85ED3B
:100B0000100A95ED144AB4EE424AF1EE10FA0ADCEE
:100B10009FED192AB8EE433A23EE022AB4EE424A78
:100B2000F1EE10FA03DAB0EE424A85ED142ABCEE7B
:100B3000C42A80ED872A90ED872A9FED103AB8EEFF
:100B4000422A82EE032A80EE010A84ED032A84ED14
:100B5000040ABDEC088B70BDC3F5285C8F421040C1
:100B60003333534000008039158CAE413277CDBF0E
:100B700048E17A3FA470BD3E9A99993E00DF7F47D5
:100B80007047000070470000B0B582B004460020F6
:100B900001904CB1E06D58B121688868800012D492
:100BA0008868C00019D54CE0012002B0B0BD00BF7C
:100BB000204600F02BF90020206684F858002168B8
:100BC00088688000ECD588684FF6C072C5F6FF7261
:100BD000104088608868C00033D44FF6C0728868BF
:100BE000C5F6FF7202F18052104000F1805088601B
:100BF00040F26800C2F20000006842F663528009C9
:100C0000C0F23E52A0FB02029009022202EB400019
:100C100001900198A8B100BF019801380190019896
:100C200078B1019801380190019850B101980138CC
:100C30000190019828B1019801380190019800288D
:100C4000EAD18868C00009D4E06D40F01000E0658A
:100C5000206E40F001002066012000E000208A683C
:100C6000E36D02F0040203F01003D218E26D40F0CD
:100C7000858022F481720232E2658A68D20729D126
:100C800040F2001341F48072C5F2000340F2080CF8
:100C90009A42C5F2000C77D1DCF80030DCF8002174
:100CA0001A43D20716D10CF1F8024FF4E063D4F8DE
:100CB00004E0914208BF4FF44073B1F1A04F08BF68
:100CC0004FF440735CF8032022F47C1242EA0E02D7
:100CD0004CF80320627FE36B43EA4232D4E902C35B
:100CE0001A4394F8243042EA0C02012B42EA0342F0
:100CF00007D1D4F828C00023CFF6FE7303EB4C4392
:100D00001A43E36A33B1D4F830C003F4787343EA8A
:100D10000C031A43D1F80CC044F20703CFF6F0736A
:100D200003EA0C031A43CA600A69636B22F040624B
:100D30001A430A618A688B6802F0040203F0080310
:100D4000D21852D194F83820237F520042EA833CD3
:100D5000CB6844F2020223EA020242EA0C02CA60B1
:100D600022690B69F2B143F480330B61D1F8C0C042
:100D700043F6FF732CEA03031A431BE042F0100111
:100D80000120E16502B0B0BDDCF800E4DCF800252C
:100D9000DCF8003642EA0E021A43D2073FF483AF72
:100DA00098E700BF23F480320A61D1F8C02043F6EF
:100DB000FF739A43C1F8C02094F840300A69012BB0
:100DC00010D140F2FD7322EA030CD4E91132D4E9C8
:100DD00013E543EA0C031A4342EA0E022A4342F0A7
:100DE000010201E022F001020A6162690B6B012A33
:100DF00023F00F0202D1236A013B1A430A63E16D1B
:100E0000012262F30101E16502B0B0BD70B59CB092
:100E100004460020CDE91A0002A804305021FFF753
:100E2000C3FA206840F20011C5F20001884201D0E7
:100E30001CB070BD4FF4004002904FF00050139072
:100E400002A801F0C3F8002818BFFFF75DFB41F2CC
:100E50004C00C4F202000168002641F40051016018
:100E6000016801F4005101910199016841F001010B
:100E70000160006817A900F0010001900198E020CE
:100E80001790032018904FF09040199600F046FA02
:100E900040F290150820C2F20005C4F2020024219D
:100EA0004FF4807385E8430005F114004FF4806C23
:100EB0004FF0200E80E808504FF440508022286206
:100EC0002846C5E9036200F021F9002818BFFFF7A2
:100ED0001BFB6565AC621CB070BD00002DE9F047DE
:100EE00040F2001703680446C5F200074FF4C160E2
:100EF000BB4208BF4FF40270B3F1A04F08BF4FF4DC
:100F00000270C0599E689246720704D40E4694F847
:100F10005810012902D10220BDE8F08707F5A06131
:100F200000F01F0501208B4284F8580018BF002DE7
:100F300014D198684FF6C078C007C7F6FF783DD146
:100F4000986808F17F01084212D0E06D40F010006F
:100F5000E065206E40F00100206603E0052DE8D03A
:100F6000092DE6D0002084F858000120BDE8F08764
:100F7000986800EA080040F00100986000F0AAFAC2
:100F800023681968C90719D1814602E01868C007AB
:100F900014D19868C00705D1986800EA080040F0AD
:100FA0000100986000F096FAA0EB0900236803287E
:100FB000ECD31868C007E9D1C7E700BFE06D40F681
:100FC0000171884300F58070BB42E06508D040F2B3
:100FD0000050C5F20000834208D107F5407001E0DF
:100FE0004FF0A040984218BF002D03D1E06D20F4CF
:100FF0008010E065E06D40F27142C0044FF00000E7
:1010000044BF206E20F006002066606D40F2ED4780
:10101000C0F60002C0F6000740F2D5450021C0F638
:101020000005C0E90B271C2245631A6084F858109C
:101030005968324641F010015960D96841F0010108
:10104000D96003F14001534600F0F6F821688A6840
:1010500002EA080242F004028A60BDE8F08700005C
:10106000B0B5D0E910C30268DCF8001003F01F032C
:101070000424D2F800E09C400C4218BF1EF0040586
:1010800022D102249C400C4218BF1EF0020529D137
:10109000D940090724D51EF0080108BFB0BD11686A
:1010A00021F00E011160012101FA03F2CCF80420B5
:1010B000C16380F82510416B002280F8242079B1AB
:1010C000BDE8B040084700BF1168890603D4116825
:1010D00021F004011160CCF80440016B0029EFD12C
:1010E000B0BD00BF1168890606D4116821F00A015D
:1010F0001160012180F82510CCF80440C16A00225B
:10110000002980F82420DBD1EAE7000000284FF016
:10111000010100F08E802DE9F04740F2000CC4F28E
:10112000020C03684FF6F8320CF5816ECBF6FD72B7
:10113000734538BF02F580624CF6CD441A44CCF6B4
:10114000CC44A2FB042803F0FC02A2F10802A2FB9B
:1011500004290CF580656FF00304D0E90262D0F831
:1011600010A03CBF0025C4F2020504EA9804C0E9BF
:101170001054022580F825501D6847F6F07725EABF
:1011800007073A43476942EA0A0285693A43C76951
:101190002A43056A3A432A4332431A600CF5026235
:1011A000734538BF0CF50062A3180CF50862C264E1
:1011B000C9F3041240F6840C01FA02F2B6F5804F2E
:1011C000C4F2020C8364026506D1002141601960FB
:1011D000CCF800201EE000BF41685FFA81FE0139B3
:1011E00003294FF00001C3F800E0CCF8002011D82B
:1011F000AEF101020CEB820747F87C1F02F01F01E1
:10120000012202FA01F30CF1BC023946CCF8C030DD
:1012100002E000BF0022002300F1540C8CE80E0015
:1012200000210122C16380F8252080F82410BDE848
:10123000F0470846704700002DE9F04190F824C0BF
:10124000BCF1010F43D04FF0010C80F824C090F89E
:1012500025C0BCF1010F37D14FF0020C80F825C03A
:101260004FF0000CC0F83CC0D0F800C000F14C0EAC
:101270009EE83040DCF80060BEF1000F26F0010669
:10128000CCF8006065601CBFD0E916456560D0E908
:101290001076012506F01F068468B540D0F830802E
:1012A0007D60CCF804300B46102C04BF13460A4670
:1012B000CCF80830CCF80C20DCF80010B8F1000FA6
:1012C00008D041F00E010DE0002180F8241002202A
:1012D000BDE8F08121F00401CCF80010DCF800102A
:1012E00041F00A01CCF80010806C0168C90303D5F5
:1012F000016841F480710160BEF1000F05D0DEF895
:10130000000040F48070CEF80000DCF8000040F0EF
:101310000100CCF800000020BDE8F0812DE9F04F7D
:1013200082B00D68002D00F0CB8041F2004400F146
:101330003847C4F6000406224FEAB726A04208BF89
:101340000522052E38BF4FEAB722002401274FF0AF
:10135000000E0026009209E00D68013635FA06F20B
:101360000EF1040E04F1020400F0AA8007FA06FB55
:1013700015EA0B08F0D0D1F804A003220AF0030C00
:10138000ACF10105A240012D6FEA020910D8826874
:10139000CD6802EA0902A5402A4382604268CAF386
:1013A000001522EA0B02B5402A43426006E000BF66
:1013B000BCF1030F02D14FF0030C21E0C2688D682D
:1013C00002EA0902A5402A43BCF1020FC26017D10C
:1013D0006FF0030202EA560202440EF01C030F25CE
:1013E000D2F820C005FA03FA0D692CEA0A0C05FAB6
:1013F00003F343EA0C031362D1F804A00AF0030CD0
:1014000002680CFA04F302EA09021A431AF4403F94
:101410000260A1D041F26003C4F202031A6840F2F4
:10142000004942F001021A601A68C4F2010902F090
:1014300001020192019A26F003024FF6084A4A443B
:10144000CFF6FF7A52F80AC00EF00C050F23009F6A
:10145000AB402CEA030307FA05F52B4342F80A30A8
:10146000D9F808C04B684CEA0805DA0258BF2CEAE4
:10147000080540F20C4CC9F80850C4F2010CDCF825
:1014800000209F0242EA080558BF22EA0805CCF86E
:101490000050D9F804209D0342EA080758BF22EA09
:1014A0000807C9F80470D9F80020DB0342EA0807EE
:1014B00058BF22EA0807C9F8007001274CE700BFAF
:1014C00002B0BDE8F08F00001823002A08BF2823CF
:1014D000C150704740F2C830C2F200000068704747
:1014E00090F8DC20012A4FF0020221D0012380F87D
:1014F000DC3080F8DD2002684B1CD2F8CCC309D068
:101500004CF00203C2F8CC33D2F8CC3323F00C03F6
:10151000194301E02CF00201C2F8CC13D2F8CC132D
:1015200041F00101C2F8CC130121002280F8DD1046
:101530001046704770B590F8DD30022B04BF0220D2
:1015400070BD90F8DC30012B4FF002033AD080F8E8
:10155000DD30D2E900C3D2E902E60CF4E0546FF3C7
:101560005F23156923440EF40074234405F4804579
:101570002B4406F40046334456690025C0F2FF159B
:1015800005EA06469569334405F00076156A33444A
:1015900005F08046D2693343066802F0004206EB4C
:1015A000C1111A43D1F8B83042F20006C3F6004622
:1015B00033401A43C1F8B8200121002380F8DD1020
:1015C00080F8DC30184670BD002804BF0120704749
:1015D00010B582B00446022084F8DD00207AC007EE
:1015E0004FF00000C4E93800C4E93A00C4E93C0007
:1015F000C4F8F8001FD0206846F60001C4F20101CB
:1016000088420CD141F26001C4F202010A6842F042
:1016100080620A60096801F08061019101990168A6
:10162000D4E9042321F4704102F44042114403F44C
:10163000405211440160204600F03EF8207A8007B5
:1016400006D52068E1680268090A61F30922026090
:10165000012084F8DD00002084F8DC00C4F8D80004
:10166000C4E90600C4E90800A062C4E90C00C4E9AA
:101670000E00C4E91000C4E91300C4E91500C4E970
:101680001700C4E91A00C4E91C00C4E91E00C4E93B
:101690002100C4E92300C4E92500C4E92800C4E905
:1016A0002A00C4E92C00C4E92F00C4E93100C4E9D0
:1016B000330002B010BD000081B0006846F60001A2
:1016C000C4F20101884201D001B0704741F26000CC
:1016D000C4F20200016841F080610160006800F01E
:1016E00080600090009801B07047000070B50D4612
:1016F0000446FFF7EFFE2168D1F88823D2031FD4F8
:1017000035B30646681C11D1D1F88803C00317D43D
:10171000D1F88803C0035CBFD1F888035FEAC0300A
:101720000ED4D1F88803C003EED509E0FFF7D2FE4E
:10173000801BA8420ED82068D0F88803C003F5D5D6
:10174000012084F8DD00002084F8DC0070BD00BFBB
:10175000FFF7C0FE072084F8DD00032070BD000005
:1017600010B590F8DD30022B4FF002032ED080F838
:10177000DD300368062911D11968D2E900CED2E91B
:10178000024221F01F0124F0180421431143196083
:10179000C3F814C0C3F818E014E000BF03EBC11194
:1017A000D1F88030D2E900ECD2E9024223F01F03E5
:1017B00024F0180423431A43C1F88020C1F894E0B0
:1017C000C1F898C00121002380F8DD10184610BD33
:1017D00080B590F8DDC0BCF1020F04BF022080BDCF
:1017E00090F8DCC0BCF1010F4FF0020C00F09E80BD
:1017F0004FF0010E062980F8DCE080F8DDC00FD143
:10180000511E072926D80FF20602DFE801F0051F56
:10181000232B2323232F00BF19680268D16128E0FE
:10182000A2F1010CBCF1070F46D80FF20602DFE867
:101830000CF00527434B4343435300BF02681B682A
:1018400002EBC111C1F89C3063E000BF1968026867
:1018500051620EE0072180F8DD10002180F8DC10D5
:1018600007E000BF19680268916202E01968026827
:10187000D16290F8DD10072904BF012080BD4EE041
:10188000026802EBC11CD3E9001ECCF8A41061462B
:1018900051F8802FBEF1000F22F440520A6038D078
:1018A0000A6842EA0E02BEF5405F0A602BD19968D1
:1018B000CCF8A8102DE000BF072180F8DD10002132
:1018C00080F8DC1025E000BF02681B6802EBC11144
:1018D000C1F8A8301DE000BF026802EBC11CD3E9CB
:1018E000001ECCF8AC10614651F8802FBEF1000FFD
:1018F00022F440420A600CD00A6842EA8E02BEF529
:10190000405F0A60D3D0BEF5005F02D19968CCF881
:101910009C1090F8DD10072904BF012080BD012133
:101920004FF0000C80F8DD1080F8DCC0604680BD10
:1019300090F8DC20012A4FF002020BD080F8DD2065
:1019400002681368194311600121002280F8DD103C
:1019500080F8DC2010467047B0B5044690F8DD00F2
:10196000022804BF0220B0BD94F8DC0001284FF02B
:10197000020008BFB0BD012584F8DC5084F8DD000A
:10198000204601F013FF002084F8DD5084F8DC00CD
:10199000B0BD000090F8DC20012A4FF002020DD00B
:1019A00080F8DD200268D2F894331943C2F894130A
:1019B0000121002280F8DD1080F8DC2010467047FD
:1019C0002DE9F04F8EB090F8DD30022B04D10223C8
:1019D00018460EB0BDE8F08F90F8DC30012B4FF0C8
:1019E0000203F5D0012780F8DC7080F8DD30D0F8F4
:1019F0000090062940D1D9F80060D9F8A0C35569F4
:101A000026F0E00625F0C004202D46EA040609D0A1
:101A10009569042D00F01A81032D00F01B81022D21
:101A200040F01C8146F020064FF2FF35C3F2FF154F
:101A3000D2E907472E4005F50065D2E9093E2C4062
:101A4000344327F06E452C4323F0684323432EF0A4
:101A50006047D2F82CB03B4343EA8B03576B23F02B
:101A600000533B43176B2CF480352F43C9F80030EB
:101A7000C9F8A073B5E000BF09EBC11CE6465EF8EB
:101A8000803F644623F07043CEF80030DEF800302B
:101A900054F8E85F23F020030B950D94644654F846
:101AA000E46F0C94D9F8A0535469202C44EA03073E
:101AB00009D09469042C00F0D580032C00F0D68066
:101AC000022C40F0D78027F4D07303F12007D369AC
:101AD000D2E911A40093136AD2F82CB00193536A8F
:101AE0000493936A0593536B0693D2E90E830A938A
:101AF000136C0993936D089344F48053B3F5F05F2E
:101B0000136D079326F480734AEA030A02D1B8F1F1
:101B1000400F03D12AF4F05343EA040AD36C052999
:101B20000393536D02930BD854A353F821302E46E0
:101B3000156B4C1C334005FA04F444EA030600E03C
:101B40002E464FF2FF33C0F2FF13009D07EA030455
:101B500003F500632B402343019C049DA4B223435F
:101B60004FF6BF74C0F2006425402B43059D04F17D
:101B700000642C4023434FF6BF7443EA0B03CFF6B7
:101B800000642340069CB4F1005F4FF6FF74CFF66B
:101B9000026408BF03F5003308EA04052B43089DDF
:101BA00004F580242C402343079C2343CEF80030C7
:101BB0004FF6C0730B9FC7F6FF733B400A9F07F0B9
:101BC0003F073B44099F3B430D9F3B60039F2AF423
:101BD00080433B430C9F3B60029BCCF8D430C9F858
:101BE000A063C1EBC103D2E9007500EB8303D2E926
:101BF0000246C3E9087517690629C3E90A461F6347
:101C00000AD844F6A823C0F6000353F82130D9F8C7
:101C100084733B43C9F8843306290DD0BBF1000F10
:101C20000AD109EBC111D1F88030D26D23F40073D1
:101C300043EA4222C1F880200121002380F8DD1010
:101C400080F8DC3018460EB0BDE8F08F46F0800614
:101C5000EAE600BF46F04006E6E600BF26F0E006F2
:101C6000E2E600BF022363F3C81730E7012363F302
:101C7000C8172CE727F4D07729E700BFFFFFFDFF47
:101C8000FFFFFBFFFFFFF7FFFFFFEFFFFFFFDFFFA0
:101C9000FFFFBFFF2DE9F04190F8DD30022B04BFBC
:101CA0000220BDE8F08190F8DC30012B4FF00203F8
:101CB0003DD080F8DD30D0F800C04FF6EF740CEB6B
:101CC000C11E5EF8EC3FCFF6EC7492E86001234051
:101CD0000134D76804EA0514234326F4403423432F
:101CE00027F4003495692343012D43EA080309D101
:101CF000D2E9044223F0060324F0020423431A43EA
:101D000042F001030629CEF800300AD844F6A82292
:101D1000C0F6000252F82110DCF884231143CCF8FD
:101D200084130121002380F8DD1080F8DC30184690
:101D3000BDE8F08140F2600040F2C831C2F200001C
:101D4000C2F2000140680A68104408607047000051
:101D500080B5032000F08CF80F2000F009F800286F
:101D60001CBF012080BD00F029F8002080BD0000CC
:101D700070B540F26006C2F200067168E1B1044637
:101D800040F26800C2F200004FF47A720068B2FBC1
:101D9000F1F1B0FBF1F000F0D3FE0F2C4FF0010594
:101DA00008D838B94FF0FF3021460022002500F056
:101DB00033F83460284670BD012070BD82B041F216
:101DC0005800C4F20200816841F00101816081681D
:101DD00001F0010101910199016841F08051016018
:101DE000006800F080500090009802B000F0E4B865
:101DF000002848BF7047C1B200F01F00012202FA5C
:101E000000F04EF20012CEF2000242EAD10121F0BF
:101E1000030108607047000010B54EF60C5CCEF26E
:101E2000000CDCF80030C3F3022E8EF00704042C03
:101E300028BF0424BEF103034FF0FF3E0EFA04F462
:101E400038BF0023A14399400EFA03F39A4311438C
:101E500000F00F0200F160430901043A03F5644306
:101E60006244002848BF02F10C03197010BD000045
:101E70004EF60C51CEF200010A684FF6FF031A40ED
:101E800060F30A2242F0806040F0FD700860704705
:101E9000B0F5007F42D0002840F0808047F2140067
:101EA000C4F2000050F8141CC26E01F4C06122F4A8
:101EB0008072B1F5806FC2662ED150F8141C0122D9
:101EC00062F34A2140F8141C40F26801C2F200019A
:101ED0000968322251434DF68362C4F21B32A1FBE2
:101EE0000212910C0268520511D54A1C0FD00268EB
:101EF00052050CD559B10268520508D5012906D002
:101F00000268520503D50229A1F10401EAD1006853
:101F1000400544BF032070470020704747F214007B
:101F2000C4F2000050F8141CC26E01F4C06142F407
:101F30008072B1F5806FC266EED150F8141C012298
:101F400062F34A2140F8141C40F26801C2F2000119
:101F50000968322251434DF68362C4F21B32A1FB61
:101F60000212910C0268520511D54A1C0FD002686A
:101F700052050CD559B10268520508D5012906D081
:101F80000268520503D50229A1F10401EAD10068D3
:101F9000400544BF03207047BEE700BF47F214006E
:101FA000C4F2000050F8141C022262F34A2140F8E7
:101FB000141C00207047000047F20800C4F2000023
:101FC000016841F480410160704700002DE9F04153
:101FD00082B00446807841F288060007C4F2020607
:101FE00002D400202FE000BF56F8300C10F08058CB
:101FF0000BD156F8300C40F0805046F8300C56F8B3
:10200000300C00F080500190019847F20007C4F2B4
:102010000007386840F480703860FFF75BFA0546C7
:102020003868C00500F10C81FFF754FA401B022804
:10203000F6D90320B8F1000F05D156F8301C21F075
:10204000805146F8301C2168CA0717D18A071DD471
:102050004A0723D40A0729D4CA062FD48A0635D4BE
:102060004A063BD40A0641D4CA0547D48A034DD454
:102070008A0553D44A0559D467E000BF32686368C3
:1020800022F003021A4332608A07E1D53268A3685E
:1020900022F00C021A4332604A07DBD53268E3684B
:1020A00022F030021A4332600A07D5D5326823691C
:1020B00022F0C0021A433260CA06CFD53268636983
:1020C00022F440721A4332608A06C9D53268A36985
:1020D00022F440621A4332604A06C3D53268E3698B
:1020E00022F440521A4332600A06BDD53268236A90
:1020F00022F440421A433260CA05B7D53268636A97
:1021000022F440321A4332608A03B1D57269A36A5D
:1021100022F003021A4372618A05ABD53268E36A82
:1021200022F440221A4332604A050ED53268236BEE
:1021300022F440121A43B3F5801F326005D156F8DD
:102140007C2C42F4801246F87C2C0A050ED53268AD
:10215000636B22F440021A43B3F5800F326005D15D
:1021600056F87C2C42F4801246F87C2CCA040ED51A
:102170003268A36B22F040721A43B3F1807F326061
:1021800005D156F87C2C42F4801246F87C2C8A0447
:102190000ED53268E36B22F040621A43B3F1006F50
:1021A000326005D156F87C2C42F4801246F87C2C23
:1021B0004A040ED53268236C22F040621A43B3F110
:1021C000006F326005D156F87C2C42F4801246F83C
:1021D0007C2C0A040ED53268636C22F040521A43FC
:1021E000B3F1805F326005D156F87C2C42F4803226
:1021F00046F87C2CCA030ED53268A36C22F040420C
:102200001A43B3F1804F326005D156F87C2C42F46A
:10221000803246F87C2C49030ED57169E26C21F4BA
:1022200040111143B2F5001F716105D156F87C1CB5
:1022300041F4801146F87C1C02B0BDE8F08100BF7B
:10224000B06810F4407010D0216D88420BD0B06897
:10225000B16820F4407041F48031B160B16821F47C
:102260008031B160B060C0070CD1B068216D20F43E
:1022700040700843B0600020B8F1000F7FF4E3AE77
:10228000DBE600BFFFF726F9054641F2883700BFBD
:10229000B0688007E9D4FFF71DF9401BB842F7D9B1
:1022A000C7E600002DE9F04700286DD042F2000A91
:1022B000C4F2020A0446DAF800000D4600F00F00EE
:1022C00088420CD2DAF8000020F00F002843CAF848
:1022D0000000DAF8000000F00F00A84254D1216895
:1022E00041F20808C807C4F2020803D1880740F188
:1022F000D880BDE0606802283AD0032840D158F861
:10230000082C920140D5D8F80420D8F8043042F2C5
:102310000046C3F3031302F00302D8F8047001333C
:10232000C0F2F406032A04BF41F20026C0F27A0686
:10233000B6FBF3F2D8F80430C7F306277A43C3F3A9
:102340004163022707EB4303B2FBF3F24BF2004376
:10235000C0F2C4439A4261D9D8F8002012F0F00FBD
:1023600051D089075AD5A168002957D14BE000BF49
:1023700058F8081C89035CBF0120BDE8F08707E01E
:1023800058F8081C490503D40120BDE8F08700BFB8
:10239000D8F8001001F00C0104293FD0D8F8001043
:1023A00001F00C01082939D0D8F8001001F00C0117
:1023B0000C2933D1D8F80410D8F8042042F2004791
:1023C000C2F3031201F00301D8F804300132C0F265
:1023D000F407032904BF41F20027C0F27A07B7FBD4
:1023E000F2F1D8F80420C3F306235943C2F3416243
:1023F000022303EB4202B1FBF2F14BF20042C0F2C6
:10240000C44291420AD9D8F80010082262F3071199
:102410004FF00109C8F8001002E000BF4FF00009BA
:10242000D8F8001021F003010843C8F80000FFF7B6
:1024300051F8064641F28837D8F80000616800F08C
:102440000C00B0EB810F07D0FFF744F8801BB842B7
:10245000F2D90320BDE8F0872168880708D4B9F1D4
:10246000000F1ED0D8F8000020F0F00017E000BFE9
:10247000480705D5D8F8000040F4E060C8F800002F
:10248000080706D5D8F80000072262F30D20C8F827
:102490000000D8F80000A26820F0F0001043C8F84F
:1024A0000000DAF8000000F00F00A8421BD9DAF8AB
:1024B000000020F00F002843CAF80000FFF70AF8D8
:1024C000064641F2883700BFDAF8000000F00F003E
:1024D000A84207D0FEF7FEFF801BB842F4D90320C4
:1024E000BDE8F0872168480707D5D8F80000E26802
:1024F00020F4E0601043C8F80000080708D5D8F8B9
:102500000000216920F4605040EAC100C8F80000D2
:10251000D8F8000042F20041C0F2F40100F00C00D3
:10252000042808462DD0D8F8000000F00C00082838
:1025300041F20020C0F27A0023D0D8F8002002F047
:102540000C020C2A1CD1D8F80420D8F8043002F070
:102550000302C3F30313D8F804700133032A08BF3E
:102560000146B1FBF3F0D8F80410C7F30627C1F316
:1025700041610222784302EB4101B0FBF1F000E03F
:102580000020D8F8001044F6C422C1F30311C0F6AD
:102590000002515C40F2680201F01F0120FA01F1D3
:1025A00040F26000C2F200000068C2F20002116056
:1025B000BDE8F047FFF7DCBB40F2680041F20801DC
:1025C000C2F20000C4F202010068096844F6D42295
:1025D000C1F30221C0F60002515C01F01F01C840A6
:1025E0007047000040F2680041F20801C2F20000AA
:1025F000C4F202010068096844F6D422C1F3C22182
:10260000C0F60002515C01F01F01C8407047000095
:1026100080B541F20C01C4F2020151F8040C42F2FF
:102620000042C0F2F40200F00C000428104608BF7B
:1026300080BD51F8040C00F00C00082841F2002085
:10264000C0F27A0022D051F8043C03F00C030C2BAA
:102650001CBF002080BDD1F800C00B680CF0030C3B
:10266000C3F3031E0B680EF1010EBCF1030F08BF8C
:1026700002460968B2FBFEF0C3F30623C1F34161D1
:102680000222584302EB4101B0FBF1F080BD000093
:102690002DE9F04182B0002800F006810446007860
:1026A00041F20006C007C4F2020655D12078800727
:1026B00074D42078000700F197802078400700F15B
:1026C000B7802078800600F10781E069002840D0BB
:1026D000B16801F00C010C2940F05681012800F08E
:1026E000E380F068216A00F003028A4240F0DC8057
:1026F000626A6FF00F0300F0F00103EB02129142E7
:1027000040F0D280A16A00F4FE42B2EB012F40F00B
:10271000CB80E16A00F07842B2EBC16F40F0C48038
:10272000226B0023CFF6E07303EA025200F4C001EB
:10273000A2F50012914240F0B780616B4FF07E42EB
:1027400002EA016100F0C06001F17E41884240F080
:10275000AB800020F1E100BFB06800F00C01F06830
:1027600008295BD0032281F00C0122EA0000084412
:10277000B0FA80F0400951D16068B0F5803F07D0D1
:10278000B0F5A02F40F0D680306840F48020306053
:10279000306840F480303060D7E000BFB068F16846
:1027A00000F00C00042869D001F0030180F00C0057
:1027B00081F002010844B0FA80F040095ED1E1687E
:1027C0003068002900F0CE8040F480703060FEF761
:1027D00081FE05463068400500F1EC80FEF77AFE88
:1027E000401B0228F6D920E16169D6F8940000293F
:1027F00000F08C8040F00100C6F89400FEF76AFEFD
:10280000054600BFD6F8940080073FF556AFFEF7A7
:1028100061FE401B0228F5D907E100BF3068800344
:102820007FF544AF606800287FF440AF3CE000BF14
:10283000B06D10F0805808D1B06D40F08050B06598
:10284000B06D00F080500190019847F20007C4F28B
:1028500000073868C0052BD4386840F480703860B1
:10286000FEF738FE054600BF3868C00520D4FEF7E5
:1028700031FE401B0228F7D9D7E000BF3068400581
:1028800001D5E06880B17068216920F0FE4040EA1F
:102890000160706040F26000C2F200000068FFF763
:1028A00067FA00283FF405AF012002B0BDE8F081CF
:1028B000A068012808D0052840F09A80D6F890003A
:1028C00040F00400C6F89000D6F8900040F00100F7
:1028D000C6F890009AE000BFA169D6F898000029D8
:1028E00070D040F00100C6F89800FEF7F3FD0546F1
:1028F000D6F8980080073FF5E8AEFEF7EBFD401BE9
:1029000002284FF00300F3D917E100BF20F00100C7
:10291000C6F89400FEF7DEFD054600BFD6F8940029
:1029200080077FF5CAAEFEF7D5FD401B0228F5D91A
:102930007BE000BF3168002821F4803131603168CC
:1029400021F48021316000F08F80FEF7C3FD054641
:10295000306880033FF5AAAEFEF7BCFD401B64283B
:10296000F6D962E020F480703060FEF7B3FD0546D2
:10297000306840057FF59DAEFEF7ACFD401B022898
:102980004FF00300F4D9D8E03168022821F08071BB
:1029900031604FD1FEF79EFD054600BF30688001D3
:1029A00040F18E80FEF796FD401B02284FF0030099
:1029B000F4D9C2E07068216920F0FE4040EA01606D
:1029C000706076E620F00100C6F89800FEF782FD00
:1029D000054600BFD6F8980080077FF576AEFEF773
:1029E00079FD401B02284FF00300F3D9A5E000BF9A
:1029F000D6F89010002821F00101C6F89010D6F802
:102A0000901021F00401C6F890103DD0FEF762FD51
:102A1000054641F2883700BFD6F89000800745D4BC
:102A2000FEF758FD401BB842F6D9032002B0BDE8BE
:102A3000F08100BFF0684FF6FF7120F00300F060F6
:102A4000F068CFF6EE610840F060FEF743FD044603
:102A5000306880017FF57DAEFEF73CFD001B02284B
:102A60004FF00300F4D968E0FEF734FD054600BFDF
:102A7000306880037FF51AAEFEF72CFD401B6428FA
:102A80004FF00300F4D958E0FEF724FD054641F26B
:102A9000883700BFD6F89000800707D5FEF71AFDEB
:102AA000401BB8424FF00300F4D946E0B8F1000FE4
:102AB0007FF407AEB06D20F08050B06501E600BF36
:102AC000F06848F20C01C0F29F1104F1200700EAFF
:102AD000010C8ECF6FF00F00D4E90C5400EB021004
:102AE0000022CFF6E07241EA0C0102EA05520843E7
:102AF000A2F500124FF07E4540EA032005EA046586
:102B0000104305F17E4540EAC7602843F060306815
:102B100040F080703060F06840F08070F060FEF748
:102B2000D9FC0446306880013FF513AEFEF7D2FCB5
:102B3000001B02284FF00300F4D902B0BDE8F08179
:102B4000411E0020B0EB116F1CBF012070474EF2F8
:102B50001002CEF2000251604EF62351CEF2000177
:102B6000F0230B70072190601160704770B590F8EA
:102B70003C20012A4FF0020265D080F83D20026817
:102B800042F600435468D2F808C0C4F2010345F28B
:102B9000000E9A42C4F2010E18BF72452CD14D6846
:102BA00024F470042C434FF68F75CFF6FF550E6852
:102BB0002C4042F6FF35C4F201053443AA4254606A
:102BC0000EDC40F2FF73C4F200039A421CDCB2F147
:102BD000804F2DD040F20043C4F2000326E000BF36
:102BE00043F6FF74C4F20104A24219DC9A421FD0DA
:102BF00043F2004318E000BF43F20045C4F2010570
:102C0000AA42CCD0CFE700BF40F60003C4F20003D5
:102C10009A420DD040F60043C4F2000306E000BF24
:102C2000724505D044F20003C4F201039A4204D174
:102C300089682CF08003194391600121002280F8FB
:102C40003D1080F83C20104670BD0000002804BFF5
:102C50000120704710B5044690F83D0028B90020C7
:102C600084F83C00204600F023F8022084F83D0060
:102C70002068211D01F02AF9012084F8480084F819
:102C80003E0084F83F0084F8400084F8410084F856
:102C9000420084F8430084F8440084F8450084F836
:102CA000460084F8470084F83D00002010BD000075
:102CB00081B00068B0F1804F02D001B0704700BF12
:102CC00041F25800C4F20200016841F001010160C4
:102CD000006800F001000090009801B0704700000B
:102CE00080B590F83C20012A4FF0020200F0988055
:102CF00080F83D20D0F800C08822DCF80830CFF6FC
:102D0000CE721A40CCF808200B68B3F5005F0DDADC
:102D10003F2B21DD5F2B33DD602B00F08380702B98
:102D200000F0A280B3F5805F73D0E7E02F22C0F2FD
:102D30001002934218DD4F21C0F210018B4247DD93
:102D40005021C0F210018B4257D06021C0F2100117
:102D50008B4252D070214BE01F2B41DC002B4CD01A
:102D6000102B4AD0CAE000BFB3F1101F3EDAB3F512
:102D7000005F00F08D80B3F5801F3ED0BEE000BF45
:102D8000402B00F09980502B40F0B880D1F804E03F
:102D9000C968DCF82030DCF8202022F00102CCF8F1
:102DA0002020DCF8182022F0F00242EA011123F082
:102DB0000A0242EA0E02CCF81810CCF82020DCF807
:102DC00008104FF68872CFF6CF72114057311EE0CF
:102DD0003021C0F210018B420FD0402108E000BF2B
:102DE000202B0AD0302B08D088E000BF05D020214E
:102DF000C0F210018B4240F08180DCF808104FF6E1
:102E00008872CFF6CF721140194341F00701CCF818
:102E100008100022012180F83D10002180F83C10AC
:102E2000104680BDD1F804E0C968DCF8203023F0FA
:102E30001003CCF82030DCF81830DCF8202023F424
:102E4000704322F0A00243EA013142EA0E12CCF8AC
:102E50001810CCF82020DCF808104FF68872CFF656
:102E6000CF7211406731D2E7D1E901E3C968DCF8DC
:102E7000082043EA0E0322F47F4243EA0121114372
:102E8000CCF80810DCF8081041F07701BFE700BF6C
:102E9000D1E901E3C968DCF8082043EA0E0322F413
:102EA0007F4243EA01211143CCF80810DCF80810F6
:102EB00041F48041ABE700BFD1F804E0C968DCF819
:102EC0002030DCF8202022F00102CCF82020DCF8B1
:102ED000182022F0F00242EA011123F00A0242EA2D
:102EE0000E02CCF81810CCF82020DCF808104FF6B1
:102EF0008872CFF6CF721140473188E7012289E707
:102F00002DE9F04190F83C30012B04BF0220BDE8D0
:102F1000F0814FEAB202052A00F2A281DFE812F046
:102F200006005400AE0008016201A80103681A6A95
:102F3000A3F1804622F001021A621D6A1A46D3F8F4
:102F4000048052F818EF8F68A6F59636D1F800C0C5
:102F500025F002054FEAB626092E45EA07050BD8EB
:102F60000127B74040F2E52427421FBFCC6825F077
:102F70000C0524F004042543092E0CD80124B44088
:102F800040F2E52634421FBF28F44074D1E90567BA
:102F9000344344EA07084FF68C74CFF6FE740EEA09
:102FA000040747EA0C07C3F804809F614F6809696A
:102FB0005F631D629F6947F008079F619F6927F063
:102FC00004079F6192E100BF036842F600461A6A57
:102FD000C4F2010622F010021A621D6A1A46D3F8E2
:102FE00004C052F8188FB3428E68D1F800E025F083
:102FF000200545EA06150BD045F20006C4F201068D
:10300000B34205D043F20046C4F20106B34207D1F1
:10301000CE686FF0400725F0C00507EA0616354375
:10302000A3F18046A6F596364FEAB626092E0DD8AE
:10303000012707FA06F640F2E5273E421FBFD1E915
:1030400005672CF44064374344EA870C48F6FF4494
:10305000CFF6FF6404EA080444EA0E27C3F804C06C
:103060009F614F6809699F631D629F6947F400670C
:103070009F619F6927F480679F6136E1036842F68C
:1030800000461A6AC4F2010622F480721A621D6AAE
:103090001A46D3F804C052F81CEFB3428E68D1F838
:1030A000008025F4007545EA06250BD045F20006A0
:1030B000C4F20106B34205D043F20046C4F2010651
:1030C000B34207D1CE6840F2FF47360225F440658F
:1030D000BE433543A3F18046A6F596364FEAB626A1
:1030E000092E0DD8012707FA06F640F2E5273E42E1
:1030F0001FBFD1E905672CF44054374344EA071C4D
:103100004FF68C74CFF6FE740EEA040747EA080700
:10311000C3F804C0DF614F680969DF631D62DF69BE
:1031200047F00807DF61DF6927F00407DF61DDE0B2
:10313000036842F600461A6AC4F2010622F480527D
:103140001A621D6A1A46D3F804C052F81C8FB342A3
:103150008E68D1F800E025F4005545EA06350BD01D
:1031600045F20006C4F20106B34205D043F2004620
:10317000C4F20106B34207D1CE6844F6FF773603A6
:1031800025F44045BE433543A3F18046A6F5963667
:103190004FEAB626092E0DD8012707FA06F640F2A7
:1031A000E5273E421FBFD1E905672CF44044374371
:1031B00044EA871C48F6FF44CFF6FF6404EA08049B
:1031C00044EA0E27C3F804C0DF614F6809691F6431
:1031D0001D62DF6947F40067DF61DF6927F48067FC
:1031E000DF6182E003681A6AA3F1804722F480322B
:1031F0001A621A46A7F59637D3F820805D6852F810
:1032000050EFD1F800C08E684FEAB727092F0AD8CF
:103210000124BC4040F2E5273C421EBF4C6925F426
:10322000803545EA042528F4003444EA06444FF684
:103230008C76CFF6FE7603360EEA060747EA0C07D1
:103240005D601F654F6809699F641C621F6D47F0D0
:1032500008071F651F6D27F004071F6546E000BFC4
:103260000121002280F83C200846BDE8F08100BF23
:1032700003681A6AA3F1804722F480121A621A4680
:10328000A7F59637D3F820805D6852F850EFD1F853
:1032900000C08E684FEAB727092F0AD80124BC4026
:1032A00040F2E5273C421EBF4C6925F4802545EAE3
:1032B000842528F4001444EA065448F6FF46CFF665
:1032C000FF6606F540760EEA060747EA0C275D60C2
:1032D0001F654F680969DF641C621F6D47F4006752
:1032E0001F651F6D27F480671F6509021368194366
:1032F00011600021002280F83C200846BDE8F081E2
:10330000002804BF0120704710B5044690F83D0026
:1033100028B9002084F83C00204600F023F8022061
:1033200084F83D002068211D00F0D0FD012084F8C4
:10333000480084F83E0084F83F0084F8400084F898
:10334000410084F8420084F8430084F8440084F883
:10335000450084F8460084F8470084F83D000020CA
:1033600010BD00007047000061B10A1F4FEAB202B1
:10337000032A15D8DFE802F00218101C00F13F0301
:1033800018E000BF90F83E20012A1CBF01207047C2
:10339000022280F83E202CE000F141030AE000BF49
:1033A00000F1430306E000BF00F1400302E000BF6C
:1033B00000F142031B78012B1CBF01207047032A38
:1033C0000CD8DFE802F0030F071300BF022280F8D9
:1033D0003F200EE0022280F841200AE0022280F81D
:1033E000432006E0022280F8402002E0022280F81A
:1033F0004220026801F01F010120136A00FA01F166
:103400008B431362136A0B43A2F18041A1F59631FD
:103410004FEAB1210729136258D8884010F0E50F10
:1034200054D0506C42F6FF31C4F2010140F4004028
:103430008A4250640EDC40F2FF70C4F20000824207
:1034400018DCB2F1804F2DD040F20040C4F20000F1
:1034500026E000BF43F6FF70C4F20100824215DC93
:1034600042F60040C4F2010082421BD043F2004009
:1034700014E000BF40F60000C4F20000824211D008
:1034800040F60040C4F200000AE000BF45F2000030
:10349000C4F20100824205D044F20000C4F20100EF
:1034A00082420CD190680721C0F201010140062937
:1034B0004FF0000008D0B1F5803F08BF704710689A
:1034C00040F0010010600020704700BF42F6FF305E
:1034D000C4F201008242AEDD43F6FF70C4F2010087
:1034E0008242BDDD44F20000C4F201008242D9D024
:1034F00045F20000C4F201008242E0D1506C40F479
:1035000000405064CEE7000090F88010012904BF0D
:10351000022070472421C0F88410026811681368E3
:1035200023F00103136021F0005300214166136072
:103530002022C0F8842080F88010084670470000E0
:10354000B0B590F88020012A04BF0220B0BD24222B
:10355000C0F884200268D0F864E0D2F800C0136894
:10356000BEF1000F23F001031360936823F0606342
:1035700041EA0301916019D09368916844F6043ED2
:10358000490FC0F6000E44F60C351EF80140C0F697
:103590000005695CC3F34263E400B4FBF1F11EF87B
:1035A0000340EB5CE500B5FBF3F301E001210123EF
:1035B000A0F86A102021A0F86830C2F800C0C0F856
:1035C0008410002180F880100846B0BDB0B590F896
:1035D0008020012A04BF0220B0BD2422C0F884202C
:1035E0000268D0F864E0D2F800C01368BEF1000FA2
:1035F00023F001031360936823F0604341EA030161
:10360000916019D09368916844F6043E490FC0F662
:10361000000E44F60C351EF80140C0F60005695C4A
:10362000C3F34263E400B4FBF1F11EF80340EB5C2A
:10363000E500B5FBF3F301E001210123A0F86A10D6
:103640002021A0F86830C2F800C0C0F88410002122
:1036500080F880100846B0BDB0B582B0B0B1044665
:10366000D0F8840028B9002084F88000204600F0BB
:1036700059F82420C4F884002068016821F0010171
:103680000160204600F034FD012803D1012002B082
:10369000B0BD00BFA06A10B1204600F0B5FC2068A4
:1036A000416821F490414160816821F02A018160E4
:1036B000016841F0010101600020C4F88C00FDF7B1
:1036C00009FF216805460A6812070CD56FF07E4C89
:1036D00020464FF4001100222B46CDF800C000F028
:1036E00067FE78B92168086840070FD56FF07E4CF7
:1036F00020464FF4800100222B46CDF800C000F098
:1037000057FE18B1032002B0B0BD00BF2020C4F89E
:103710008400C4F888000020E06684F8800002B0CD
:10372000B0BD000010B59AB00446684608304C2180
:10373000FCF73AFE206843F60001C4F2010188421A
:1037400002D01AB010BD00BF0120009000246846CE
:103750000194FEF73BFC002818BFFCF7D5FE41F2B0
:103760004C00C4F20200416941F480414161416969
:1037700001F4804115911599016841F00201016041
:10378000006815A900F0020015901598C02015904A
:103790000220CDE916040720199040F20040C4F63B
:1037A00000001894FDF7BAFD1AB010BD2DE9F041E4
:1037B00000687F2A00EBC114A04658F8E4EF4FF0F0
:1037C000000158F82CCC00F32F80013A3F2A00F278
:1037D0004480DFE802F0213B42214242423B424228
:1037E00042424242422142424242424242424242DA
:1037F00042424242423B42424242424242424242B0
:103800004242424242424242424242424242424298
:1038100042424242422100BFD3E90112C4F8BC1027
:10382000C4F8C020002118E0B2F5007F08DB0DD0FD
:10383000B2F5006F0AD0B2F5806FEDD00DE000BF99
:10384000802A03D0B2F5807FE6D006E0D3E90112EA
:10385000C4F8C4101021C4F8C820D3E90506D3E980
:10386000034730431D683843FE2220438A402843E3
:103870002EEA02028840082F42EA000205D11CF419
:10388000007008BF1CF0007004D0C8F80020BDE82C
:10389000F08100BFD86988400243C8F80020BDE825
:1038A000F0810000FEE7000010B588B040F224105F
:1038B00040F20011C2F20000C5F2000100244FF4F2
:1038C000403280E81600032101234FF0080C01620A
:1038D0004FF48C614FF48062CDE90644CDE9044495
:1038E000CDE90244CDE90044C0E90344C0E9053C08
:1038F000848380F82440C0E90B1280F83830C46318
:1039000080F84040FDF740F9002818BFFCF7FCFDA7
:1039100042F20000C3F29060009006200190042063
:103920007F210290CDE9031040F22410C2F2000082
:1039300069460594FCF7EEFD002818BFFCF7E4FD8E
:103940000820C0F6904000900C20019040F2241016
:10395000C2F200006946FCF7DDFD002818BFFCF745
:10396000D3FD1020C1F2C00000901220019040F25F
:103970002410C2F200006946FCF7CCFD002818BFF5
:10398000FCF7C2FD08B010BD80B582B041F248001E
:10399000C4F202000168002241F0040101600168E4
:1039A00001F0040101910199016841F001010160F8
:1039B0000068002100F00100009000980B20FEF745
:1039C0002BFA0B2002B0BDE88040FEF711BA0000D0
:1039D00070B586B0002541F24C000595C4F2020096
:1039E000016840F6000441F0040101600168C4F67A
:1039F000000401F00401009100990168002241F0E7
:103A00002001016001684FF4804601F0200100911F
:103A10000099016841F001010160016801F00101B4
:103A200000910099016841F00201016000684FF4C3
:103A3000804100F00200009000982046FDF744FD10
:103A40000120CDE9020501A9204601960495FDF764
:103A500065FC06B070BD00002DE9F041BCB046F633
:103A60000005002414A86021C4F201053694CDE9B4
:103A70003444CDE93244CDE93044CDE92E44CDE99A
:103A80002C44FCF791FC08A824211394CDE911449F
:103A9000FCF78AFC40F2F010C2F20000CDE90644C7
:103AA000CDE90444CDE90244CDE90044C0E9005425
:103AB0008460FDF789FD002818BFFCF725FD40F262
:103AC000F010C2F200000C21FDF70AFD002818BF1B
:103AD000FCF71AFD40F2F010C2F200000A21FDF7D7
:103AE00005FE002818BFFCF70FFD4FF6DF7033907E
:103AF000012035900820369040F2F0100024C2F2E8
:103B0000000033AA00213494FDF72AFE002818BFD4
:103B1000FCF7FAFC40F2F010C2F200002CAA0021DF
:103B20002C942F943294FEF7B5F8002818BFFCF7B8
:103B3000EBFC00240120CDE918044FF00060CDE932
:103B40001E044FF00050CDE921044FF48070CDE900
:103B5000250440F2F010C2F2000014AA0021CDE9C1
:103B60001644CDE91444CDE91A44CDE91C4420940F
:103B7000CDE92344CDE92A44CDE92844FDF720FFCF
:103B8000002818BFFCF7C0FC40F2F010C2F20000A1
:103B900014AA03212694FDF713FF002818BFFCF791
:103BA000B3FC47F23050119040F2F010C2F2000026
:103BB00011AB00210122FDF70BFE002818BFFCF716
:103BC000A3FC08AC20462421FCF7EEFB40F2F010E9
:103BD000C2F2000000212246FDF7ACFC002818BF0D
:103BE000FCF792FC40F2F010C2F2000008AA032198
:103BF000FDF7A0FC002818BFFCF786FC042100207C
:103C0000019108210090CDE90210CDE90400CDE931
:103C1000060040F2F010C2F200006B4600210122C3
:103C2000FDF79AFE002818BFFCF76EFC40F2F0107A
:103C3000C2F200006B4603214022FDF78DFE0028F2
:103C400018BFFCF761FC0020CDE9010040F2F01044
:103C5000C2F200006B4600210222FDF77DFE002823
:103C600018BFFCF751FC40F2F010C2F200006B46A6
:103C700003218022FDF770FE002818BFFCF744FCEA
:103C800040F2F010C2F2000033AA0321FDF768FDF4
:103C9000002818BFFCF738FC40F2F010C2F2000018
:103CA0002CAA0321FDF7F6FF002818BFFCF72CFC17
:103CB00040F2F01447F6EF70C2F20004119011AB1D
:103CC000204603210122FDF783FD002818BFFCF7E1
:103CD0001BFC2068A84203D03CB0BDE8F08100BFC7
:103CE00041F24C00C4F20200016837AC41F002011D
:103CF000016001684FF0020801F002013791379925
:103D00000168002641F0010101600068032700F00E
:103D10000100379037984FF44040379040F2004010
:103D20000D25C4F600002146CDF8E08039963A977B
:103D30003B95FDF7F3FA4FF44070CDE937084FF0AB
:103D400090402146CDE939673B95FDF7E7FA3CB055
:103D5000BDE8F08110B58EB040F2EC2044F23F2473
:103D60000021C2F20000C0F20F040D91CDE90B1149
:103D7000CDE90811CDE90611CDE90411CDE9021113
:103D8000CDE900114FF08042A923C0E9021401617E
:103D90008021C0E900238161FEF758FF002818BF89
:103DA000FCF7B2FB4FF480500A9040F2EC20C2F2D4
:103DB00000000AA9FEF794FF002818BFFCF7A4FB37
:103DC00040F2EC20C2F20000FFF79AFA002818BF78
:103DD000FCF79AFB5020079040F2EC200024C2F23E
:103DE000000007A90994FEF7C1FE002818BFFCF7E0
:103DF0008BFB602000904FF47A70CDE90104042021
:103E0000049040F2EC20C2F2000069460422FFF761
:103E100077F8002818BFFCF777FB0EB010BD000044
:103E200080B540F2383043F60001C2F20000C4F21F
:103E3000010100234FF00C0C4FF4E13280E80E003A
:103E4000C0E90333C0E905C3C0E90733C0E909335A
:103E5000FFF702FC002818BFFCF756FB40F2383091
:103E6000C2F200000021FFF7B1FB002818BFFCF7E9
:103E70004BFB40F23830C2F200000021FFF760FB3C
:103E8000002818BFFCF740FB40F23830C2F20000B7
:103E9000FFF73AFB002808BF80BDBDE88040FCF773
:103EA00033BB0000FEE70000FEE7000070470000A3
:103EB00070470000FDF73EBF4EF68850CEF200007E
:103EC000016841F4700101607047000080B540F660
:103ED000FF330268C4F2000343F2FF3C9842C4F28D
:103EE000010C0BDD60452FDC40F60043C4F20003FB
:103EF000984235D042F600432EE000BFB0F1804F2B
:103F00002ED040F20043C4F20003984228D040F67D
:103F10000003C4F20003984222D0604526DC40F240
:103F2000FF73C4F20003984236DD40F60003C4F28A
:103F30000003984244D040F60043C4F20003984284
:103F40003ED042F6004337E045F20003C4F20103DD
:103F5000984205D043F20043C4F201039842DCD1F9
:103F60004B6822F070021A436045D8DD44F2FF33FB
:103F7000C4F20103984217DD44F20043C4F2010386
:103F800098421DD045F20003C4F20103984217D0B5
:103F900044F6000310E000BFB0F1804F10D040F2B3
:103FA0000043C4F2000309E043F20043C4F20103FA
:103FB000984205D044F20003C4F20103984203D1B1
:103FC000CB6822F440721A434B6922F0800E8A6853
:103FD00043EA0E03D1F800C00360C262A0F1804240
:103FE000A2F596324FEAB222092AC0F828C008D8B2
:103FF000012303FA02F240F2E5231A421CBF0969C9
:1040000001630121416180BD80B5816ACA070DD17C
:104010008A0716D44A071FD40A0728D4CA0631D4FF
:104020008A063AD44A0658D542E000BF0268D0F862
:104030002CC0536823F4003343EA0C0353608A070F
:10404000E8D50268D0F830C0536823F4803343EADF
:104050000C0353604A07DFD50268D0F834C05368B8
:1040600023F4802343EA0C0353600A07D6D5026881
:10407000D0F838C0536823F4004343EA0C0353607C
:10408000CA06CDD50268D0F83CC0936823F48053AB
:1040900043EA0C0393608A06C4D50268D0F840C096
:1040A000936823F4005343EA0C0393604A0614D543
:1040B0000268D0F844C05368BCF5801F23F4801315
:1040C00043EA0C03536008D1D2F804C0D0F848E0AA
:1040D0002CF4C00343EA0E035360090658BF80BDA9
:1040E0000168C06C4A6822F400221043486080BD19
:1040F00070B5054605F108041ECC0068194341EA75
:104100000403EE69046846F6F311CCF6FF71214012
:10411000194331430160416848F2000C21F44051D9
:1041200011434160AA69C4F2000C60451CBF296AB2
:104130000A4381684FF2FF43C1F2FF131940114354
:104140008160C16AD5F824E021F00F0141EA0E0137
:10415000C16244F6FF71C4F2000188424FF01003BF
:1041600018DC44F20041C4F20001884228D044F631
:104170000001C4F2000188422AD044F60041C4F292
:104180000001884242D141F28801C4F2020109686B
:104190008B0933E045F20001C4F2000188421FD0D0
:1041A000604525D043F60001C4F2010188422DD1BB
:1041B00041F28801C4F202010B6879A222E000BF3B
:1041C00041F28801C4F2020109688B0816E000BFC1
:1041D00041F28801C4F2020109680B090EE000BF38
:1041E00041F28801C4F2020109680B0A06E000BF2F
:1041F00041F28801C4F2020109688B0A44F6F422F4
:10420000C0F6000203F0030152F82130604542F28B
:104210000040C0F2F40015D0B6F5004F24D1082BB1
:104220004FF0010100F2B380DFE803F0065E6CB1ED
:1042300064B1B1B16A0000BFFEF7BEF9002856D1E3
:104240005CE000BF082B4FF0010100F2A080DFE826
:1042500003F0059E259E1D9E9E9E2300FEF7ACF951
:10426000C0B1D5F824E019E0082B4FF0010100F2AD
:104270008E80DFE803F00565738C6B8C8C8C71008D
:10428000FEF79AF900285ED164E000BFFEF7C0F99E
:104290000028E6D100217AE04FF4004044F6DC210A
:1042A000C0F6000131F81E106A68B0FBF1F002EBB5
:1042B000420188424FF0010169D31303984266D846
:1042C000010E000210EB520041F100010023FBF748
:1042D000F3FF4FF60052A0F54071C0F20F02914279
:1042E0004FD3012153E000BFFEF77CF930B1D5F880
:1042F00024E007E0FEF78CF90028F8D1002146E021
:104300004FF4004044F6DC21C0F6000131F81E10E5
:104310006A68B0FBF1F0510801EB4000B0FBF2F02D
:104320004FF6EF72A0F11001914207D84FF6F071ED
:104330000140C0F34200084423E000BF012126E011
:10434000FEF750F930B1D5F824E007E0FEF760F948
:104350000028F8D100211AE04FF4004044F6DC2197
:10436000C0F6000131F81E104FF6EF72B0FBF1F00D
:10437000696800EB5100B0FBF1F0A0F1100191422F
:1043800004D82968C860002101E000BF01214FF076
:104390000110A866002208462A676A6770BD00BF40
:1043A00001000000040000000200000008000000FE
:1043B0002DE9F041044600681546C2690E461140D9
:1043C000891BB1FA81F14909A94240F0A080DDF8CA
:1043D0001880B8F1000F29D018F1010140F0808059
:1043E000C1693140891BB1FA81F14909A94240F004
:1043F0008E80C1693140891BB1FA81F14909A94216
:1044000040F08580C1693140891BB1FA81F14909C9
:10441000A9427CD1C1693140891BB1FA81F14909B6
:10442000A942DDD00020BDE8F08100BFFDF752F8C1
:10443000206850E8000F216820F4D07041E80002A5
:10444000BAB3206850E8000F216820F4D07041E82A
:10445000000272B3206850E8000F216820F4D07089
:1044600041E800022AB3206850E8000F216820F4D8
:10447000D07041E80002002ADAD11AE0206850E842
:10448000020F216820F0010041E80202DAB1206841
:1044900050E8020F216820F0010041E8020292B1C9
:1044A000206850E8020F216820F0010041E8020274
:1044B0004AB1206850E8020F216820F0010041E86D
:1044C0000202002ADAD12020C4F8840004F1880016
:1044D00020210160002084F880000320BDE8F081E5
:1044E0001F4600BFFCF7F6FFC01B4045A0D8206860
:1044F0000168490744BFC1695FEA01510AD4C06934
:104500003040801BB0FA80F04009A842EAD0002079
:10451000BDE8F0814FF40061016200BF206850E8FF
:10452000000F216820F4D07041E80002BAB320687F
:1045300050E8000F216820F4D07041E8000272B307
:10454000206850E8000F216820F4D07041E8000294
:104550002AB3206850E8000F216820F4D07041E8A9
:104560000002002ADAD11AE0206850E8020F216820
:1045700020F0010041E80202DAB1206850E8020FA1
:10458000216820F0010041E8020292B1206850E861
:10459000020F216820F0010041E802024AB12068C0
:1045A00050E8020F216820F0010041E80202002AD1
:1045B000DAD12020C4F88400C4F8880004F18C000B
:1045C00086E70000FEE7000090ED060A90ED071A6E
:1045D00090ED082AB8EE003A30EE011A22EE033AC6
:1045E00031EE021A33EE400A80ED001A80ED010A26
:1045F000002980ED022A1EBF0021C0E9031141619C
:104600007047000094B0FDF7A3FB002400200C9439
:10461000CDE90A44CDE90844FDF73AFC01200690B3
:104620004FF4803007900220032555210D90CDE9ED
:104630000E50CDE91010CDE9120006A8FEF728F8BB
:1046400020B1EFF3108072B6FEE700BF0F20CDE976
:10465000010501A80421CDE903440594FDF722FEDC
:1046600020B1EFF3108072B6FEE700BFFFF7B0F99C
:10467000FFF78AF9FFF7F0F9FFF76CFBFFF7D0FBC4
:10468000FFF712F940F2F014C2F2000420464FF492
:104690000031FDF74DF920460321FDF77BF9206835
:1046A0004FF6DF754FF6C021C0F89450C0F89C104B
:1046B00020464FF48011FDF73BF92046C021FDF75D
:1046C00069F920680F22C0F8145240F2D000C2F2FB
:1046D000000000F1180140F22410C2F20000FCF7C3
:1046E000FDFB2C20C4F20000092101600221C16001
:1046F00040F2EC20C2F200000421FEF735FE40F645
:104700000000C4F600004FF480410122FCF7DCFEFB
:1047100040F20000C2F20000D0E9001241EA02417A
:1047200046F6B802C4F201021160F0E8021341EA51
:104730000341C2F880110121FFF746FFFEE70000A8
:1047400021F0004201F00043A2F16052B2F5801F57
:1047500028BFD2F17F6C0BD95FEA001C43EAC2028A
:1047600042EB507018BF704728BF20F0010070471F
:10477000B2F5801FBCBF184670474FEA410C1CF5CC
:10478000001F02D2084600F089B970B500F0B4F8F5
:1047900000000089FFF7F6BF4FF00040A0F5800051
:1047A0007047000070B5DFF848C11CEA111E1EBF3B
:1047B0001CEA13159EEA0C0F95EA0C0F00F06F80AF
:1047C00081EA03044EEAD47EAE4421EA4C1123EA86
:1047D0004C1341F4801143F48013AEF17F7EA1FBB2
:1047E000024CA0FB0365361955EB0C05A1FB034CED
:1047F0004CF10003A0FB021C16EB0C06654153F1C3
:104800000003094218BF46F0010613F4007F0BD1E4
:104810004FEA03314FEA053041EA155140EA16509C
:1048200034036FF003020AE04FEAC3214FEAC520C8
:1048300041EA555140EA5650F4026FF0020202EB91
:104840002E4201EB025585EACE710AD05FEA440C94
:1048500018BF24F0004450F1000041F1000120EAAB
:10486000D47040F2FE7C624500D270BDA84214BFF5
:104870004FF080444FF04044002E08BF0024BEF1AA
:10488000806FA8BFA1F1C041BDE8704080F2828076
:1048900001F1C04101F000414FF0000070470CEA07
:1048A00013159EEA0C0F18BF95EA0C0F06D081EA8B
:1048B000030E4FF000000EF0004170BD00F01CF838
:1048C0008900013E00F007B800F009B84FEA430C38
:1048D0005FEA5C5C08D081EA030100F05BB84FEA54
:1048E000410C5FEA5C5CF6D102494FF00000704772
:1048F0000000FF070000F87F0EF1020E2EF0030EFD
:104900005EF8046B364205D4012A43EB030515F526
:10491000001F12D8012841EB010C1CF5001F0CD818
:104920000ED14FEAD17C0CEB4C0C0CF1020C15F5BE
:10493000001F08BF4CEBD37C04E04FF0080C01E0F3
:104940004FEAD37C0CEB4C0526FA05F606F0070679
:10495000B6F1040C06D20EEB860CBDE870404CF0AC
:10496000010C6047DFE80CF0090B02024FF0004138
:10497000A1F500214FF0000070BD19461046012836
:1049800051EB010418BFD4F5001484BF002001F0DE
:10499000004170BD0808A0F500114FEA31017047D1
:1049A00043004FEAD30C4FEA3C0C43401FBF400783
:1049B0000CF1605113F0FE4F70471CF0006F03D1F3
:1049C0000CF00041002070470CF0004343EA5070A7
:1049D00040EACC0010B500F00EF800BF00000092D5
:1049E0004FEA0001FFF7D6BF4FF00041A1F50021CB
:1049F0004FF0000070470EF1020E2EF0030E5EF82D
:104A0000044B244204D44FEA4102B2F17F4F11D843
:104A10004FEA4003B3F17F4F0CD80ED14FEAD07C60
:104A20000CEB4C0C0CF1020CB2F17F4F08BF4CEBBD
:104A3000D17C04E04FF0080C01E04FEAD17C0CEB94
:104A40004C0324FA03F404F00704B4F1040C06D276
:104A50000EEB840CBDE810404CF0010C6047DFE821
:104A60000CF0070802024FF00040A0F5800010BDD6
:104A70000846420018BFD2F1807288BF00F00040A3
:104A800010BDF1EE100A4FF6FF71C0F2C03120EAFE
:104A9000010040F04070E1EE100A7047FF2141EA4A
:104AA000D050C00570470000020000000400000064
:104AB000080000001000000020000000400000007E
:104AC00001000000000000000000000001020304DB
:104AD00006070809000000000102030401000200AB
:104AE0000400060008000A000C001000200040002E
:104AF000800000010000000004000000020000002F
:104B0000080000000101010307010000080402047D
:104B100008010101384B000800000020700000006F
:104B200014020008A84B000870000020600F00006D
:104B300030020008000000002800000028000000EB
:104B40000000000000000000000000000000000065
:104B500000000000000000000000C8C20000C842C1
:104B60000000000000000000000000000000000045
:104B7000000000000AD7233C0000000000000000F5
:104B8000000000000AD7233C00DF7F4700007AC402
:104B9000000048C30AD7A33C100000000100000039
:084BA0000024F40000000000F5
:04000005080001D915
:00000001FF
